:020000040800F2
:10000000D04C0020FD9F00084D9E00084F9E000828
:10001000519E0008539E0008559E000800000000F5
:10002000000000000000000000000000579E0008D3
:10003000599E0008000000005B9E00085D9E0008BD
:1000400035A0000839A000083DA0000841A0000824
:1000500045A0000849A000084DA0000851A00008D4
:1000600055A0000859A000085DA00008659E000882
:1000700061A0000865A0000869A000086DA0000844
:1000800071A0000875A000086F9E000879A0000804
:10009000799E00087DA0000881A0000885A00008C6
:1000A00089A000088DA0000891A0000895A0000874
:1000B000839E000899A000089DA00008A1A0000848
:1000C000A5A00008A9A00008ADA00008B1A00008E4
:1000D000B5A000088D9E0008B9A00008BDA00008CA
:1000E000AD9E0008C1A00008C5A0000800000000E7
:1000F0000000000000000000000000000000000000
:1001000000000000000000000000000000000000EF
:1001100000000000000000000000000000000000DF
:10012000E003E003E003E003E003E003E003E003B7
:10013000C003C003C001C001C001C001C001000074
:1001400000000000E003E003E00300000000000006
:10015000000000003C1E3C1E3C1E3C1E3C1E3C1E83
:100160003C1E000000000000000000000000000035
:10017000000000000000000000000000000000007F
:100180000000000000000000CE01CE03DE039E034D
:100190009C039C07FF3FFF7F3807380F780F780FCD
:1001A000780EFFFFFFFFF01EF01CE01CE03CE03D7E
:1001B000E03900000000000000000000FC03FE0F1A
:1001C000EE1FE01EE01EE01EE01EE01FE00FE00755
:1001D000F003FC01FE01FE01FE01FE01FE01FE0135
:1001E000FE3DFC3FF00FE001E001000000000000D8
:1001F000033E07F78FE78EE79EE3BCE3B8E7F8E737
:10020000F0F7E03FC001FF03FF07F307F30FF31E12
:10021000F33CF338F3787FF03FE00000000000008B
:1002200000000000E007F80F780F781F781F781F94
:10023000780FF00FE00F801FC37FC3FBE7F3F7F1E8
:10024000F7F0FFF07FF03EF87F7CFF3FEF1F0000EC
:100250000000000000000000E003E003E003E00312
:10026000E003C003C0010000000000000000000027
:10027000000000000000000000000000000000007E
:100280000000000000000000000000003F007C00B3
:10029000F001E001C003C00780078007800F000F56
:1002A000000F000F000F000F000F800F8007800766
:1002B000C007C003E001F0017C003F000F00000018
:1002C000007E001FC007C003E001F001F000F00055
:1002D000F800780078007800780078007800F8005E
:1002E000F000F000F001E001C003C007001F007E35
:1002F00000780000E003C003C001CE39FF3F7F3F1C
:1003000020037003F807780F3C1F38060000000038
:1003100000000000000000000000000000000000DD
:1003200000000000000000000000000000000000CD
:1003300000000000C001C001C001C001C001C00137
:10034000C001FFFFFFFFC001C001C001C001C0012B
:10035000C0010000000000000000000000000000DC
:10036000000000000000000000000000000000008D
:100370000000000000000000000000000000E0039A
:10038000E003E003E003E001E001E001C0018003DD
:10039000000000000000000000000000000000005D
:1003A000000000000000FE3FFE3F000000000000D3
:1003B000000000000000000000000000000000003D
:1003C000000000000000000000000000000000002D
:1003D000000000000000000000000000000000001D
:1003E000000000000000E003E003E003E003000081
:1003F00000000000000000000F000F001E001E00A3
:100400003C003C0078007800F000F000E001E001E2
:10041000C003C00380078007000F000F001E001EEE
:10042000003C003C0078007800F00000F007F80F76
:100430007C1F3E3E1E3C1F7C1F7C0F780F780F7880
:100440000F780F780F780F781F7C1F7C1E3C3E3E84
:100450007C1FF80FF0070000000000000000000003
:10046000F000F007F03FF03FF001F001F001F00183
:10047000F001F001F001F001F001F001F001F001F4
:10048000F001F001F001FF3FFF3F0000000000001D
:1004900000000000E00FF83F7C3C3C003E003E00C6
:1004A0003E003C003C007C00F800F001E003C00787
:1004B0008007000F001E003E003CFE3FFE3F000094
:1004C0000000000000000000F00FF81F7C1C3E0040
:1004D0003E003E003C003C00F800F00FF80F7C00AE
:1004E0003E001E001E001E001E003E007C1CF81F69
:1004F000E01F000000000000000000007800F8008D
:10050000F800F801F803F807F807780F781E781E4E
:10051000783C78787878FFFFFFFF780078007800E3
:100520007800780078000000000000000000000063
:10053000FC1FFC1FFC1F001E001E001E001E001ED4
:10054000E01FF81FFC007C003E003E001E003E0045
:100550003E003C007C1CF81FE01F00000000000073
:1005600000000000FC01FE078E0F001F001E003E71
:10057000003C003CF83DFC3F3E7F1F7E0F3C0F3CA3
:100580000F3C0F3C0F3E1F1E3E1FFC0FF0030000F0
:100590000000000000000000FF3FFF3FFF3F0F0092
:1005A0001E001E003C0038007800F000F000E00162
:1005B000E001C003C0038007800F800F000F001F01
:1005C000001F00000000000000000000F807FC0F02
:1005D0003E1F1E1E1E3E1E3E1E1E3C1FF80FF00735
:1005E000F80FFC1E3E3E1F3C1F7C0F7C0F7C1F3C07
:1005F0003E3FFC1FF007000000000000000000006C
:10060000F007F80F7C1E3E3C1E3C1F7C1F7C1F7CAD
:100610001F7C1F3C3F3EFF1FEF071F001E001E00F8
:100620003E003C00F838F03FE01F000000000000F2
:1006300000000000000000000000000000000000BA
:10064000E003E003E003E00300000000000000001E
:10065000000000000000E003E003E003E00300000E
:10066000000000000000000000000000000000008A
:1006700000000000E003E003E003E00300000000EE
:1006800000000000000000000000E003E003E003C1
:10069000E003E001E001E001C0038003000000008E
:1006A000000000000000000003000F003F00FC00FD
:1006B000F003C00F003F00FE003FC00FF003FC003E
:1006C0003F000F00030000000000000000000000D9
:1006D000000000000000000000000000000000001A
:1006E00000000000FFFFFFFF000000000000FFFF10
:1006F000FFFF0000000000000000000000000000FC
:1007000000000000000000000000000000000000E9
:1007100000E000F8007E801FE007F8017E001F0067
:100720007E00F801E007801F007E00F800E0000076
:100730000000000000000000F01FFC3F3E381F38A2
:100740001F381E001E003C007800F000E001C003CE
:10075000C003C007C007000000000000C007C007BA
:10076000C00700000000000000000000F803FE0FBA
:100770001E1F0F3E7F3CFF78EF79C773C7F38FF3DF
:100780008FF38FF39FF39FF3FF73FF7BF779003CA9
:100790001C1FFC0FF8030000000000000000000018
:1007A000000000000000E003E003F007F007F0079E
:1007B000780F780F7C0E3C1E3C1E3E3CFE3FFF3FF8
:1007C0001F780F780FF007F007F00000000000001E
:1007D00000000000000000000000F83FFC3F3E3C2D
:1007E0001E3C1E3C1E3C3E3C7C3CF03FF83F7E3CA9
:1007F0001F3C1F3C0F3C0F3C1F3CFE3FF83F0000DE
:100800000000000000000000000000000000FF01E8
:10081000FF07871F003E003C007C007800780078CE
:1008200000780078007C007C003E003F831FFF07BB
:10083000FF010000000000000000000000000000B8
:100840000000F07FFC7F7E781F781F780F780F788C
:100850000F780F780F780F780F780F781F781E7841
:100860007E78F87FE07F00000000000000000000BC
:10087000000000000000FF3FFF3F003E003E003E42
:10088000003E003E003EFE3FFE3F003E003E003E7A
:10089000003E003E003EFF3FFF3F00000000000022
:1008A00000000000000000000000FF1FFF1F001EEE
:1008B000001E001E001E001E001EFF1FFF1F001E48
:1008C000001E001E001E001E001E001E001E000056
:1008D0000000000000000000000000000000FE0317
:1008E000FF0F871F003E007C007C007800F800F8B6
:1008F0007FF87FF80F780F7C0F7C0F3E8F1FFF0F64
:10090000FE030000000000000000000000000000E6
:1009100000001F7C1F7C1F7C1F7C1F7C1F7C1F7C9A
:100920001F7CFF7FFF7F1F7C1F7C1F7C1F7C1F7C29
:100930001F7C1F7C1F7C00000000000000000000E6
:10094000000000000000FC3FFC3FE003E003E00388
:10095000E003E003E003E003E003E003E003E0037F
:10096000E003E003E003FC3FFC3F00000000000068
:1009700000000000000000000000FC1FFC1F7C00C5
:100980007C007C007C007C007C007C007C007C0087
:100990007C007C0078007800F838F03FC03F000011
:1009A00000000000000000000000000000001F3CEC
:1009B0001E3C3C3C783CF03CE03DE03FC03F803F8B
:1009C000C03FE03FF03DF03C783C7C3C3E3C1F3C6F
:1009D0000F3C0000000000000000000000000000CC
:1009E0000000003E003E003E003E003E003E003E55
:1009F000003E003E003E003E003E003E003E003E07
:100A0000003EFC3FFC3F0000000000000000000032
:100A10000000000000001FF81FFC1FFC3FFE3FFE0F
:100A20003FFE7FFF77FF77FFF7F7E7F7E7F3E7F39F
:100A3000C7F307F007F007F007F000000000000020
:100A4000000000000000000000000F7C0F7C0F7E03
:100A50000F7F0F7F8F7F8F7FCF7FEF7BEF79FF79C6
:100A6000FF78FF787F783F783F781F781F78000005
:100A70000000000000000000000000000000F0077F
:100A8000FC1F3E3E1F7C0F780F780FF80FF80FF811
:100A90000FF80FF80FF80F780F781F7C3E3EFC1F01
:100AA000F00700000000000000000000000000004F
:100AB0000000FC3FFF3F1F3E0F3E0F3E0F3E0F3E2C
:100AC0001F3E3F3EFC3FF03F003E003E003E003EEA
:100AD000003E003E003E000000000000000000005C
:100AE000000000000000F007FC1F3E3E1F7C0F7856
:100AF0000F780FF80FF80FF80FF80FF80FF80F78BE
:100B00000F781F7C3E3EFC1FF8077C003F000F0063
:100B100003000000000000000000F03FFC3F7E3CAE
:100B20003E3C1E3C1E3C3E3C3C3CFC3CF03FE03F1F
:100B3000F03DF83C7C3C3E3C1E3C1F3C0F3C000022
:100B40000000000000000000000000000000FC07A2
:100B5000FE1F0E3E003C003C003C003EC01FF80F54
:100B6000FE037F001F000F000F001F203E3CFC3FD4
:100B7000F01F000000000000000000000000000066
:100B80000000FFFFFFFFE003E003E003E003E003FA
:100B9000E003E003E003E003E003E003E003E0033D
:100BA000E003E003E003000000000000000000009C
:100BB0000000000000000F7C0F7C0F7C0F7C0F7C7E
:100BC0000F7C0F7C0F7C0F7C0F7C0F7C0F7C0F7CCD
:100BD0001E3C1E3C3E3EFC1FF007000000000000D3
:100BE0000000000000000000000007F007F007F818
:100BF0000F780F7C1E3C1E3C1E3E3C1E3C1F781F87
:100C0000780FF80FF007F007F007E003E0030000AB
:100C1000000000000000000000000000000003E0F1
:100C200003F003F007F0E7F3E7F3E7F3E773F77B8D
:100C3000F77FFF7F7F7F7F7F7E7F7E3F3E3E3E3E12
:100C40003E3E000000000000000000000000000028
:100C5000000007F80F7C1E3E3E3E3C1FF80FF007D9
:100C6000E007E003E003F007F80F7C0F7C1E3E3C3A
:100C70001F780F780FF00000000000000000000057
:100C800000000000000007F807780F7C1E3C1E3EA5
:100C90003C1F780FF80FF007E003E003E003E003E8
:100CA000E003E003E003E003E003000000000000D5
:100CB00000000000000000000000FF7FFF7F0F0029
:100CC0001F003E007C00F800F000E001E003C007D8
:100CD000800F000F001E003E007CFF7FFF7F0000A2
:100CE0000000000000000000FF0780078007800769
:100CF00080078007800780078007800780078007BC
:100D000080078007800780078007800780078007AB
:100D1000800780078007FF07FF0700000078007842
:100D2000003C003C001E001E000F000F80078007E3
:100D3000C003C003E001E001F000F000780078009B
:100D40003C003C001E001E000F000F0007000000CA
:100D5000F07FF000F000F000F000F000F000F00094
:100D6000F000F000F000F000F000F000F000F00003
:100D7000F000F000F000F000F000F000F000F07F74
:100D8000F07F0000C000C001C001E003E003F007F5
:100D9000F0077807780F380F3C1E3C1E1E3C1E3CA7
:100DA0000F380F78077800000000000000000000F6
:100DB0000000000000000000000000000000000033
:100DC0000000000000000000000000000000000023
:100DD0000000000000000000000000000000000013
:100DE0000000FFFFFFFF000000000000F000000017
:100DF00000000000000000000000000000000000F3
:100E000000000000000000000000000000000000E2
:100E100000000000000000000000000000000000D2
:100E2000000000000000000000000000F80FFC3F80
:100E30007C3C3E003E003E00FE07FE1F3E3E3E7CE8
:100E40003E783E7C7E7CFF3FCF1F0000000000000C
:100E500000000000003C003C003C003C003C003C2A
:100E6000F83DFE3F3E3F1F3E0F3C0F3C0F3C0F3C0A
:100E70000F3C0F3C1F3C1E3C3E3FFC3FF03B000044
:100E80000000000000000000000000000000000062
:100E900000000000FE03FF0F871F003E003E003CE5
:100EA000007C007C007C003C003E003E871FFF0F62
:100EB000FE03000000000000000000001F001F00F3
:100EC0001F001F001F001F00FF07FF1F3F3E1F3CAA
:100ED0001F7C1F7C1F7C1F781F781F7C1F7C3F3C62
:100EE0007F3EFF1FDF0F0000000000000000000039
:100EF000000000000000000000000000F803FC0FEC
:100F00003E1F1E3E1F3C1F7CFF7FFF7F007C007C3E
:100F1000003C003E071FFF0FFE0300000000000022
:100F200000000000FF01E103C003C007C007C007C5
:100F3000FF7FFF7FC007C007C007C007C007C0070B
:100F4000C007C007C007C007C007C007C007000030
:100F50000000000000000000000000000000000091
:100F600000000000EF07FF1F7F3E1F3C1F7C1F7C1F
:100F70001F781F781F781F7C1F7C3F3C7F3EFF1F20
:100F8000DF0F1E001E001E007C38F83F003C003CB6
:100F9000003C003C003C003CFC3DFE3F9E3F1F3FB0
:100FA0001F3E1F3C1F3C1F3C1F3C1F3C1F3C1F3C67
:100FB0001F3C1F3C1F3C0000000000000000000020
:100FC000F001F0010000000000000000E07FE07F81
:100FD000E001E001E001E001E001E001E001E00109
:100FE000E001E001E001E001E0010000000000009C
:100FF00000000000F800F800000000000000000001
:10100000F83FF83FF800F800F800F800F800F800A2
:10101000F800F800F800F800F800F800F800F80010
:10102000F800F000F071E07F003C003C003C003C28
:10103000003C003C1F3C3E3C7C3CF83CF03DE03D2D
:10104000C03FC03FE03FF03DF83C7C3C3E3C1F3C95
:101050001F3C00000000000000000000F07FF001D5
:10106000F001F001F001F001F001F001F001F001F8
:10107000F001F001F001F001F001F001F001F001E8
:10108000F001F001F001000000000000000000008D
:101090000000000000000000000000009EF7FFFFBD
:1010A000FFFFFFFFE7FBE7F9C7F1C7F1C7F1C7F1A2
:1010B000C7F1C7F1C7F1C7F1C7F100000000000098
:1010C0000000000000000000000000000000000020
:1010D000FC3DFE3F9E3F1F3F1F3E1F3C1F3C1F3CF1
:1010E0001F3C1F3C1F3C1F3C1F3C1F3C1F3C000083
:1010F00000000000000000000000000000000000F0
:1011000000000000F007FC1F3E3E1F3C1F7C0F78D4
:101110000F780F780F780F781F7C1F3C3E3EFC1F26
:10112000F0070000000000000000000000000000C8
:101130000000000000000000F83DFE3F3E3F1F3E63
:101140000F3C0F3C0F3C0F3C0F3C0F3C1F3C1E3E26
:101150003E3FFC3FF83F003C003C003C003C003C74
:10116000000000000000000000000000EE07FE1F6D
:101170007E3E1E3C1E7C1E781E781E781E781E78D1
:101180001E7C3E7C7E3EFE1FDE0F1E001E001E00EB
:101190001E001E0000000000000000000000000013
:1011A0007F1FFF1FE71FC71F871F001F001F001F94
:1011B000001F001F001F001F001F001F001F000056
:1011C000000000000000000000000000000000001F
:1011D00000000000FC07FE1F0E1E003E003E003F08
:1011E000E01FFC07FE003E001E001E003E3CFC3FD0
:1011F000F01F0000000000000000000000000000E0
:101200000000800780078007FF7FFF7F800780073F
:101210008007800780078007800780078007800796
:10122000C007FF03FF0100000000000000000000F5
:101230000000000000000000000000001E3C1E3CFA
:101240001E3C1E3C1E3C1E3C1E3C1E3C1E3C1E3CCE
:101250003E3C7E3CFE3EFE1FDE0F00000000000014
:10126000000000000000000000000000000000007E
:1012700007F00F780F781E3C1E3C1E3E3C1E3C1EA5
:10128000780F780FF00FF007F007E003E00300009D
:10129000000000000000000000000000000000004E
:1012A0000000000003F0E3F1E3F3E7F3F7F3F7F3F3
:1012B000F77F777F7F7F7F7F7F7F3E3E3E3E3E3E54
:1012C0003E3E0000000000000000000000000000A2
:1012D00000000000000000000F7C1E3E3C3E3C1F52
:1012E000F80FF007F007E003F007F807F80F7C1E8F
:1012F0003E3E1F3C1F780000000000000000000080
:1013000000000000000000000000000007F80F7857
:101310000F7C1E3C1E3C3C1E3C1E3C1F780FF80FF1
:10132000F007F007E003E003C003C003C003800739
:10133000800F007F0000000000000000000000009F
:10134000FF3FFF3F1F003E007C00F800F001E0037C
:10135000C007800F001F001E003CFF7FFF7F0000C2
:101360000000000000000000FE01E003C003C00315
:10137000C003C003E001E001E001C001C003803F01
:10138000803FC003C001E001E001E001C003C003F1
:10139000C003C003E003FE017E000000C001C001E5
:1013A000C001C001C001C001C001C001C001C00135
:1013B000C001C001C001C001C001C001C001C00125
:1013C000C001C001C001C001C001C001C0010000D6
:1013D000C03FE003E001E001E001E001C001C00323
:1013E000C003C001E001FE00FE00E001C001C00337
:1013F000C003C001E001E001E001E001E003C03F03
:10140000003F00000000000000000000000000009D
:1014100000000000000000000000073FC77FE773E6
:10142000FFF17EF00000000000000000000000005E
:10143000000000000000000030B585B00400002C62
:1014400001D10120A2E094F8A902002805D10020D2
:1014500084F8A802200001F053F8032084F8A902C0
:10146000206801F013FA211D83B06846202202F0A3
:10147000E1F90EBC206801F0FAF9002804D002203E
:1014800084F8A902012081E00021206801F008FA17
:1014900000200100C9B26268914229D228210200CD
:1014A000D2B24A432244012382F829300200D2B248
:1014B0004A43224482F828000200D2B24A4322441E
:1014C000002382F82B300200D2B24A432244002388
:1014D00093630200D2B24A4322440023D363020042
:1014E000D2B201FB02F1214400220A64401CD0E781
:1014F00000252800C0B2616888422CD2282029002B
:10150000C9B241432144002281F869212900C9B2AE
:101510004143214481F868512900C9B24143214423
:10152000002281F86B212900C9B2414321440022E5
:10153000C1F878212900C9B2414321440022C1F8F1
:101540007C212900C9B200FB01F020440021C0F831
:1015500080116D1CCDE7211D83B06846202202F06A
:1015600069F90EBC206801F09EF9002804D0022021
:1015700084F8A902012009E0002084F82400012059
:1015800084F8A902206802F0E0F8002005B030BD20
:1015900010B5040094F8A802012801D1022010E03F
:1015A000012084F8A802206801F066F901212000DA
:1015B00001F045F9206802F0C5F8002084F8A8027F
:1015C000002010BD7FB50400206802F0C1F80500BE
:1015D000280403D5200000F040FAC6E0680510D5C5
:1015E0002068B0F844104FF6FF3001402068A0F8A2
:1015F0004410200000F0D2FF0021200000F0B6F8D7
:10160000B3E0680409D52068B0F844104BF6FF70C9
:1016100001402068A0F84410A7E0A80409D520687C
:10162000B0F844104DF6FF7001402068A0F8441057
:101630009BE0E8041ED52068B0F840104FF6FB7020
:1016400001402068A0F840102068B0F840104FF624
:10165000F77001402068A0F84010200000F0C0FFA3
:101660002068B0F844104EF6FF7001402068A0F8E2
:1016700044107AE028055DD500210800C0B2082892
:101680000BD220680A00D2B230F822006A460B0062
:10169000DBB222F81300491CEFE72068B0F84000E5
:1016A00050F001002268A2F840002068B0F8402005
:1016B0004FF6FE7002402068A0F840202068B0F885
:1016C00044004005FAD52068B0F844204FF6FF30BA
:1016D00002402068A0F8442000263000C0B208284C
:1016E0000BD268463100C9B230F8110021683200CF
:1016F000D2B221F82200761CEFE72068B0F8400053
:1017000050F008002168A1F840002068B0F84410AB
:101710004FF2FF7001402068A0F844102068B0F834
:10172000400050F004002168A1F84000200000F0C3
:1017300048FF1AE0A8050CD52068B0F844104FF611
:10174000FF5001402068A0F84410200000F01FFF67
:101750000BE0E80509D52068B0F844104FF6FF60AB
:1017600001402068A0F84410FFE77FBD38B50400B1
:101770000D0094F8A802012801D102200DE00120FB
:1017800084F8A80284F824502900C9B2206801F026
:10179000CFFF002084F8A802002032BD2DE9F843D5
:1017A00004000D0016001F005FF000082800C0B202
:1017B00000060DD52900C9B211F0070128204143C8
:1017C00004EB010010F12809012089F801000CE068
:1017D0002900C9B211F007012820414304EB0100A0
:1017E00010F5B479002089F8010015F0070089F898
:1017F0000000300080B2C9F8100089F8037038008A
:10180000C0B2022802D1002089F8040094F8A8028E
:10181000012801D102200BE0012084F8A8024946EA
:10182000206801F051F8002084F8A8024046C0B2B8
:10183000BDE8F28370B504000D002800C0B20006B8
:101840000CD52900C9B211F007012820414304EB4F
:10185000010010F12806012070700BE02900C9B2C8
:1018600011F007012820414304EB010010F5B47684
:101870000020707015F00700307094F8A80201285D
:1018800001D102200AE0012084F8A802310020687A
:1018900001F0D8F9002084F8A802002070BD2DE9DD
:1018A000F04104000D0016001F002900C9B211F01C
:1018B00007012820414304EB010010F5B478C8F873
:1018C0001460C8F818700020C8F81C00002088F8C0
:1018D000010015F0070088F800004146206801F07B
:1018E0008EFA0020BDE8F081C9B211F0070128226C
:1018F00051430844D0F8840170472DE9F0410400B9
:101900000D0016001F002900C9B211F007012820A0
:10191000414304EB010010F12808C8F81460C8F82E
:101920001870012088F82400C8F820700020C8F83A
:101930001C00012088F8010015F0070088F800005D
:101940004146206801F05BFA0020BDE8F08170B5E7
:1019500004000D0060682900C9B211F00701884237
:1019600001D2012038E02800C0B200060CD52900C1
:10197000C9B211F007012820414304EB010010F126
:1019800028060120707009E02900C9B228204143CF
:1019900004EB010010F5B476002070700120B070E7
:1019A00015F00700307094F8A802012801D1022038
:1019B00012E0012084F8A8023100206801F040FE06
:1019C00015F0070F04D114F52C71206801F0C4FE46
:1019D000002084F8A802002070BD70B504000D003E
:1019E00060682900C9B211F00F01884201D20120BC
:1019F00032E02800C0B200060CD52900C9B211F0AF
:101A000007012820414304EB010010F128060120C2
:101A100070700BE02900C9B211F007012820414382
:101A200004EB010010F5B476002070700020B07057
:101A300015F00700307094F8A802012801D10220A7
:101A40000AE0012084F8A8023100206801F01DFEA0
:101A5000002084F8A802002070BD2DE9FE4F04008C
:101A60002068B0F84400000440F16E822068B0F8AD
:101A70004400ADF80200BDF8020010F00F008046EF
:101A80004046C0B2002840F0ED80BDF80200C0061C
:101A900035D42068018848F60F70014051F40041A8
:101AA0002068018014F1280005002068B0F850007B
:101AB000297810EBC100216811EB400101F20441CB
:101AC000088880B28005800DE8616869E96908448A
:101AD00068610021200000F049FD94F824000028EE
:101AE000BED0A8690028BBD194F8240050F0800033
:101AF0002168A1F84C00002084F82400B0E714F518
:101B0000B4700500206800880700380524D52068D7
:101B1000B0F85000297810EBC100216811EB4001AA
:101B200001F20C41088880B28005800DE861EB6904
:101B30009BB2EA8814F52C71206801F037FE20680A
:101B4000018840F68F70014051F0800120680180CB
:101B5000200000F0F0FC83E738047FF581AF2068B7
:101B6000018840F68F70014051F0800120680180AB
:101B70002068B0F85000297810EBC100216811EB03
:101B8000400101F20C41088880B28005800DE861B7
:101B9000E869002811D0686900280ED0EB699BB273
:101BA000EA886969206801F001FE6869E96908440A
:101BB00068610021200000F0C7FC20680088070051
:101BC00038053FF54DAF380080B210F44050B0F505
:101BD000405F3FF445AF21682068B0F850004118DD
:101BE00001F20C408146B9F800008005800DA9F88B
:101BF000000028693F280FD3286940092A7C12F089
:101C00001F0F00D1401EB9F80020830253F4004397
:101C10001A43A9F8002015E02869002806D1B9F870
:101C2000000050F40040A9F800000BE028694008CB
:101C30002A7CD20700D5401CB9F8002052EA802245
:101C4000A9F80020206802884BF68F70024092F4B9
:101C5000805292F4005242F4004252F08002206816
:101C60000280FDE620684146C9B230F82100070035
:101C7000380440F1A68020684146C9B230F82110EE
:101C800040F68F70014051F0800120684246D2B288
:101C900020F822104146C9B22820414304EB01003C
:101CA00010F5B4700500287B00281AD12068B0F820
:101CB0005000297810EBC100216811EB400101F2BE
:101CC0000C4108888005800D0600300080B2002895
:101CD0005CD033009BB2EA886969206801F066FD38
:101CE00054E0E878022807D13A0092B22900200097
:101CF00000F02DF9060049E02068297830F821101D
:101D000048F68F70014041F4004151F0C001206855
:101D10002A7820F822102068297830F82100400421
:101D20001AD52068B0F85000297810EBC10021685E
:101D300011EB400101F2044108888005800D060086
:101D4000300080B2002821D033009BB22A89696913
:101D5000206801F02BFD19E02068B0F850002978C8
:101D600010EBC100216811EB400101F20C41088821
:101D70008005800D0600300080B2002806D03300B8
:101D80009BB26A896969206801F010FDE969300039
:101D900080B24118E9616869310089B2084468611C
:101DA000A869002804D0300080B22969884204D292
:101DB0002978200000F0C8FB03E02900206801F02A
:101DC0001EF838067FF54CAE4146C9B22820414383
:101DD00004EB01002830050020684146C9B230F804
:101DE000211048F60F70014051F40041206842462E
:101DF000D2B220F82210E878012868D10020A8612A
:101E0000287B00285ED078062ED56878002818D167
:101E100021682068B0F8500041182878C00011EB04
:101E2000400000F204408246BAF800008005800DB0
:101E3000AAF80000BAF8000050F40040AAF8000028
:101E400011E0687801280ED121682068B0F85000B0
:101E500041182878C00011EB400000F204400290C5
:101E60000020029A10802DE021686878002818D19F
:101E700022682068B0F8500082182878C00012EB61
:101E8000400000F20C408346BBF800008005800D46
:101E9000ABF80000BBF8000050F40040ABF80000C5
:101EA00010E0687801280DD12068B0F85000411882
:101EB0002878C00011EB400000F20C400190002097
:101EC000019A10802978200000F050FBC8E5F80541
:101ED00033D42068B0F85000297810EBC100216895
:101EE00011EB400101F2044108888005800DADF836
:101EF0000000BDF80000A969884205D2A969BDF8B3
:101F00000000091AA96101E00020A861A869002861
:101F100004D12978200000F029FBA1E56869BDF80B
:101F2000001008446861E969BDF800004118E961E2
:101F30002900206800F063FF92E53A0092B2290080
:101F4000200000F0A4F88BE50020BDE8FE8FF8B576
:101F500004000D00160070044BD52068B0F8500046
:101F6000297810EBC100216811EB400101F2044116
:101F70000F88BF05BF0DA869390089B2884205D313
:101F8000A969380080B2091AA96101E00020A8619E
:101F9000A869002810D12068297830F821104BF664
:101FA0008F70014091F4005141F4004151F08001E3
:101FB00020682A7820F8221070060ED5206829782B
:101FC00030F8211048F68F70014041F4004151F083
:101FD000C00120682A7820F82210380080B200283A
:101FE00052D03B009BB22A896969206801F0DEFB70
:101FF0004AE02068B0F85000297810EBC100216851
:1020000011EB400101F20C410F88BF05BF0DA8691B
:10201000390089B2884205D3A969380080B2091A0B
:10202000A96101E00020A861A869002810D12068FA
:10203000297830F821104BF68F70014091F400514F
:1020400041F4004151F0800120682A7820F82210E4
:1020500070060ED42068297830F8211048F68F7069
:10206000014041F4004151F0C00120682A7820F875
:102070002210380080B2002806D03B009BB26A894B
:102080006969206801F092FB380080B2F2BD2DE949
:10209000F04105000E001700780640F10C81286819
:1020A000B0F85000317810EBC100296811EB400105
:1020B00001F20441B1F800805FEA88585FEA98585D
:1020C000404680B2B169884205D2B169404680B2CB
:1020D000091AB16101E00020B061B069002864D143
:1020E0007078002813D129682868B0F8500041188A
:1020F0003078C00011EB400000F2044002889205E5
:10210000920D0280028852F4004202800FE0707843
:1021100001280CD129682868B0F85000411830789F
:10212000C00011EB400000F2044000220280296848
:102130007078002813D12A682868B0F850008218F7
:102140003078C00012EB400000F20C4003889B0581
:102150009B0D0380038853F4004303800EE07078E6
:1021600001280BD12868B0F8500041183078C00021
:1021700011EB400000F20C40002202803178280070
:1021800000F0F4F9780440F1A5812868317830F83E
:10219000211048F68F70014041F4404151F0800118
:1021A0002868327820F8221094E178040ED5286847
:1021B000317830F8211048F68F70014041F44041E9
:1021C00051F080012868327820F8221096F8240017
:1021D000012840F07F817069414689B208447061EE
:1021E000F169404680B24118F161306A3169884234
:1021F00005D330690400306A001B306210E0306A99
:10220000002806D1404680B20400002086F8240051
:1022100006E0002086F82400306A040000203062C6
:102220007078002830D129682868B0F8500041182B
:102230003078C00011EB400000F2044002889205A3
:10224000920D02803F2C0ED32200520914F01F0F72
:1022500000D1521E03885FEA822C5CF4004C5CEAD9
:10226000030303800FE0002C04D1028852F40042E3
:10227000028008E022005208E30700D5521C0388C0
:1022800053EA822303800EE0707801280BD129687D
:102290002868B0F8500041183078C00011EB4000B9
:1022A00000F20440048023009BB2328971692868DF
:1022B00001F055FA0EE12868B0F85000317810EBC3
:1022C000C100296811EB400101F20C41B1F8008016
:1022D0005FEA88585FEA9858B069414689B28842F7
:1022E00005D3B169404680B2091AB16101E000200E
:1022F000B061B069002864D17078002813D12968D2
:102300002868B0F8500041183078C00011EB400048
:1023100000F2044002889205920D0280028852F475
:10232000004202800FE0707801280CD129682868EB
:10233000B0F8500041183078C00011EB400000F2B6
:1023400004400022028029687078002813D12A688E
:102350002868B0F8500082183078C00012EB4000B6
:1023600000F20C4003889B059B0D0380038853F407
:10237000004303800EE0707801280BD12868B0F884
:10238000500041183078C00011EB400000F20C40C2
:10239000002202803178280000F0E8F8780400F18B
:1023A00099802868317830F8211048F68F70014004
:1023B00041F4404151F080012868327820F8221021
:1023C00088E078040ED42868317830F8211048F677
:1023D0008F70014041F4404151F08001286832780B
:1023E00020F8221096F82400012873D17069414624
:1023F00089B208447061F169404680B24118F161C8
:10240000306A3169884205D330690400306A001BA4
:10241000306210E0306A002806D1404680B20400E5
:10242000002086F8240006E0306A040000203062B4
:10243000002086F8240029687078002835D12A68A1
:102440002868B0F8500082183078C00012EB4000C5
:1024500000F20C4003889B059B0D03803F2C10D39A
:1024600023005B0914F01F0F00D15B1EB0F800C001
:102470005FEA832E5EF4004E5EEA0C0CA0F800C00A
:1024800012E0002C04D1038853F4004303800BE0D6
:1024900023005B085FEAC47C00D55B1CB0F800C079
:1024A0005CEA832CA0F800C00DE0707801280AD106
:1024B0002868B0F8500041183078C00011EB400097
:1024C00000F20C40048023009BB272897169286875
:1024D00001F045F92868317830F8211048F6BF70CE
:1024E000014091F0100191F0200141F4004151F0C0
:1024F00080012868327820F822100020BDE8F081A1
:102500001CB504002068DFF82013884212D1DFF8E0
:102510001C03016851F400010160006810F4000020
:102520000090009800220021142001F03EFA1420AF
:1025300001F050FA13BD10B5040014F52C71D4F855
:10254000EC0201F0B8FA10BD38B504000D00290006
:10255000C9B22820414304EB0100D0F87C212900B6
:10256000C9B2D4F8EC0201F0DAFA31BD38B5040092
:102570000D002900C9B22820414304EB0100C26BC1
:102580002900C9B2D4F8EC0201F020FB31BD10B52E
:102590000400D4F8EC0201F0E8FB10BD38B50400EB
:1025A0000125A068022801D001F003FD2900C9B26D
:1025B000D4F8EC0201F0C0FBD4F8EC0201F08CFB83
:1025C00031BD10B50400D4F8EC0201F0B9FBA069EC
:1025D000002804D09648016851F00601016010BD42
:1025E00010B50400D4F8EC0201F0B4FB10BD10B536
:1025F00004009048C0F8EC42C4F8C0028A49016067
:102600000821416002218160002181610021C161B6
:1026100000210162FEF710FF002801D001F0C9FC83
:10262000182300220021D4F8C00201F0C4FC582372
:1026300000228021D4F8C00201F0BDFCC02300229A
:102640008121D4F8C00201F0B6FC4FF48873002257
:102650000121D4F8C00201F0AEFC4FF480730022D7
:102660008221D4F8C00201F0A6FC002010BDF8B50C
:10267000040000250027D4F8C002FEF789FF0600F9
:102680003000C0B200F0DCF8C0B2F2BD2DE9F04776
:1026900004000D0016001F005FF000085FF0000A44
:1026A0003300DBB23A0092B22900C9B2D4F8C002BA
:1026B000FFF774F881464846C0B200F0C1F8C0B2D6
:1026C000BDE8F0872DE9F04104000D0000265FF021
:1026D00000082900C9B2D4F8C002FFF7ABF8070020
:1026E0003800C0B200F0ACF8C0B2BDE8F0812DE90E
:1026F000F04104000D0000265FF000082900C9B277
:10270000D4F8C002FFF723F907003800C0B200F088
:1027100097F8C0B2BDE8F0812DE9F04104000D004A
:1027200000265FF000082900C9B2D4F8C002FFF704
:1027300054F907003800C0B200F082F8C0B2BDE81A
:10274000F0810200D2F8C0320800C0B2000609D5FC
:10275000C9B211F07F012820414303EB010090F83A
:102760002A0008E0C9B211F07F012820414303EBA1
:10277000010090F86A0170472DE9F04104000D0056
:1027800000265FF000082900C9B2D4F8C002FEF7A5
:10279000EDFF07003800C0B200F052F8C0B2BDE84B
:1027A000F0812DE9F04704000D0016001F005FF0D6
:1027B00000085FF0000A3B009BB232002900C9B25A
:1027C000D4F8C002FFF799F881464846C0B200F03D
:1027D00037F8C0B2BDE8F0872DE9F04704000D00DE
:1027E00016001F005FF000085FF0000A3B009BB27C
:1027F00032002900C9B2D4F8C002FFF750F8814670
:102800004846C0B200F01CF8C0B2BDE8F08738B549
:1028100004000D002900C9B2D4F8C002FFF764F823
:1028200032BD010004487047005C00401C100240AB
:1028300010ED00E0343B0020E84000207047704776
:10284000010000220800C0B2002805D0022807D0ED
:1028500004D3032806D007E0002006E0022004E0AD
:10286000012002E0022000E00220C0B270470EB456
:102870000100002003B0704701000020A1F84400CF
:102880004FF43F42A1F840200020704701004FF470
:102890003F42B1F840009043A1F84000002070474B
:1028A0000200002070470EB401000120A1F8400092
:1028B0000020A1F840000020A1F844000020A1F869
:1028C0005000002003B070472DE9F04103000A00DA
:1028D0000020117833F8214048F68F110C40D17850
:1028E000002905D0022906D009D3032904D009E024
:1028F00054F4007408E007E054F4C06404E054F4B5
:10290000806401E00121080048F2800555EA0401D5
:10291000167823F8261048F68F76117833F8217050
:10292000374011780F432F43117823F82170117B22
:10293000002940F0C180517800293ED01F00B3F833
:102940005010CF19117817EB011111F58061B2F811
:1029500006C01FFA8CFC5FEA5C0C5FEA4C0CA1F825
:1029600000C0117833F821105FEA416C0AD517785E
:1029700033F827703E4046F4004656F0C0061778FC
:1029800023F82760D17801290CD0117833F8216021
:1029900048F6BF710E4096F020063543117823F8B3
:1029A00021504CE1117833F8216048F6BF710E4098
:1029B0003543117823F8215041E11F00B3F850103E
:1029C000CF191178C90017EB410111F58161B2F8F7
:1029D00006C01FFA8CFC5FEA5C0C5FEA4C0CA1F8A5
:1029E00000C09C46B3F8501011EB0C0C1178C900D4
:1029F0001CEB410E0EF20C4EBEF800108905890D3D
:102A0000AEF8001011693F2911D311694909177CEB
:102A100017F01F0F00D1491EBEF800705FEA812831
:102A200058F4004858EA0707AEF8007015E011693D
:102A3000002906D1BEF8001051F40041AEF8001094
:102A40000BE011694908177CFF0700D5491CBEF847
:102A5000007057EA8127AEF80070117833F8211022
:102A60004F040AD5177833F827703E4046F44046A5
:102A700056F08006177823F82760117800290ED1C8
:102A8000117833F821604BF68F710E4096F4805622
:102A900096F400563543117823F82150CFE0117891
:102AA00033F821604BF68F710E4096F40056354393
:102AB000117823F82150C2E0D17802290BD1117886
:102AC00033F82110314041F4014151F08001177871
:102AD00023F8271009E0117833F8217048F68F6148
:102AE0000F402F43117823F821701F00B3F85010C6
:102AF000CF19117817EB011111F58061B2F808C0F8
:102B00001FFA8CFC5FEA5C0C5FEA4C0CA1F800C079
:102B10009C46B3F8501011EB0C0C1178C9001CEB5B
:102B2000410111F58161B2F80AE01FFA8EFE5FEAF9
:102B30005E0E5FEA4E0EA1F800E05178002939D10F
:102B4000117833F821104F040BD5177833F827701C
:102B5000374047F4404757F0800792F800C023F809
:102B60002C70117833F821104F060AD5177833F8F6
:102B700027703E4046F4004656F0C006177823F80A
:102B80002760117833F821604BF68F710E4096F470
:102B9000805696F400562E43117823F82160117860
:102BA00033F8216048F6BF710E403543117823F8A1
:102BB000215044E0117833F821104F040BD51778D9
:102BC00033F82770374047F4404757F0800792F8B2
:102BD00000C023F82C70117833F821104F060AD565
:102BE000177833F827703E4046F4004656F0C0068A
:102BF000177823F82760D17801290CD0117833F8A1
:102C0000216048F6BF710E4096F020062E431178E1
:102C100023F8216009E0117833F8216048F6BF718C
:102C20000E402E43117823F82160117833F821608B
:102C30004BF68F710E403543117823F82150C0B206
:102C4000BDE8F08110B40200087B002842D148782A
:102C500000281FD0087832F8203058060CD50878A4
:102C600032F8204048F68F70044044F4004454F099
:102C7000C004087822F82040087832F8203048F65E
:102C8000BF70034043F4004353F08003087822F8F8
:102C90002030B1E0087832F8203058040CD508789C
:102CA00032F8204048F68F70044044F4404454F019
:102CB0008004087822F82040087832F820304BF65B
:102CC0008F70034043F4004353F08003087822F8E8
:102CD000203091E04878002847D1087832F8203039
:102CE00058040CD5087832F8204048F68F7004401C
:102CF00044F4404454F08004087822F820400878D6
:102D000032F8203058060CD5087832F8204048F6C2
:102D10008F70044044F4004454F0C004087822F852
:102D20002040087832F8203048F68F70034043F492
:102D3000004353F0C003087822F82030087832F8B6
:102D400020404BF68F70044048F280031C43087803
:102D500022F82040087832F8204048F6BF7004403E
:102D60002343087822F8203046E0087832F82030F3
:102D700058040CD5087832F8204048F68F7004408B
:102D800044F4404454F08004087822F82040087845
:102D900032F8203058060CD5087832F8204048F632
:102DA0008F70044044F4004454F0C004087822F8C2
:102DB0002040087832F8203048F68F70034043F402
:102DC000404353F08003087822F82030087832F826
:102DD000204048F6BF70044048F280031C43087846
:102DE00022F82040087832F820404BF68F700440DB
:102DF0002343087822F82030002010BC70472DE9CA
:102E0000F84305000E007078012840F070823069A8
:102E1000B169884202D23069040001E0B06904005F
:102E2000307B002812D123009BB2F2887169280000
:102E300000F095FC2900B5F8500041183078C0002A
:102E400011EB400000F2044004803EE2F0780228DA
:102E500040F097813069316A884280F06C81307827
:102E600035F8201048F68F70014041F4014151F0CF
:102E70008001307825F82010306A001B30623078ED
:102E800035F82000400640F1AB802900707800281A
:102E900034D12A00B5F8500082183078C00012EB07
:102EA000400000F20C4003889B059B0D03803F2CE3
:102EB00010D323005B0914F01F0F00D15B1EB0F884
:102EC00000C05FEA832E5EF4004E5EEA0C0CA0F8B0
:102ED00000C012E0002C04D1038853F400430380A7
:102EE0000BE023005B085FEAC47C00D55B1CB0F8F4
:102EF00000C05CEA832CA0F800C00CE070780128C8
:102F000009D1B5F8500041183078C00011EB4000ED
:102F100000F20C400480B6F80A9023009BB24A46A7
:102F200092B27169280000F01AFC70692044706147
:102F30003069316A884203D2306A001B306203E094
:102F4000306A040000203062707800282FD12900F8
:102F5000B5F8500041183078C00011EB400000F285
:102F6000044002889205920D02803F2C0ED322006D
:102F7000520914F01F0F00D1521E03885FEA822C01
:102F80005CF4004C5CEA030303800FE0002C04D1E6
:102F9000028852F40042028008E022005208E3074F
:102FA00000D5521C038853EA822303800DE0707819
:102FB00001280AD12900B5F8500041183078C00026
:102FC00011EB400000F204400480B6F808802300B2
:102FD0009BB2424692B27169280000F0C0FB74E1D6
:102FE000707800282FD12900B5F8500041183078AA
:102FF000C00011EB400000F2044002889205920DDF
:1030000002803F2C0ED32200520914F01F0F00D172
:10301000521E03885FEA822C5CF4004C5CEA0303D6
:1030200003800FE0002C04D1028852F40042028099
:1030300008E022005208E30700D5521C038853EA37
:10304000822303800DE0707801280AD12900B5F8A9
:10305000500041183078C00011EB400000F20440ED
:103060000480B6F8089023009BB24A4692B2716978
:10307000280000F074FB7069204470613069316A87
:10308000884203D2306A001B306203E0306A0400D9
:103090000020306229007078002834D12A00B5F869
:1030A000500082183078C00012EB400000F20C4053
:1030B00003889B059B0D03803F2C10D323005B09E5
:1030C00014F01F0F00D15B1EB0F800C05FEA832E22
:1030D0005EF4004E5EEA0C0CA0F800C012E0002C7A
:1030E00004D1038853F4004303800BE023005B0802
:1030F0005FEAC47C00D55B1CB0F800C05CEA832C9E
:10310000A0F800C00CE07078012809D1B5F8500093
:1031100041183078C00011EB400000F20C400480F0
:10312000B6F80A8023009BB2424692B27169280029
:1031300000F015FBC9E0306A0400307835F8201043
:1031400048F68F60014041F4004151F08001307831
:1031500025F82010A946B5F8500010EB0909307881
:10316000C00019EB400000F2044004803089804622
:1031700023009BB2424692B27169280000F0EFFA38
:10318000A3E0306A001B3062307835F8200040063A
:1031900050D529007078002834D12A00B5F85000A5
:1031A00082183078C00012EB400000F20C40038817
:1031B0009B059B0D03803F2C10D323005B0914F06B
:1031C0001F0F00D15B1EB0F800C05FEA832E5EF4D3
:1031D000004E5EEA0C0CA0F800C012E0002C04D1F6
:1031E000038853F4004303800BE023005B085FEA8D
:1031F000C47C00D55B1CB0F800C05CEA832CA0F84E
:1032000000C00CE07078012809D1B5F850004118D1
:103210003078C00011EB400000F20C40048070894F
:10322000804623009BB2424692B27169280000F0AA
:1032300096FA4AE0707800282FD12900B5F850009E
:1032400041183078C00011EB400000F204400288C1
:103250009205920D02803F2C0ED32200520914F0E9
:103260001F0F00D1521E03885FEA822C5CF4004CD1
:103270005CEA030303800FE0002C04D1028852F4BF
:103280000042028008E022005208E30700D5521CE9
:10329000038853EA822303800DE0707801280AD165
:1032A0002900B5F8500041183078C00011EB4000FB
:1032B00000F2044004803089804623009BB24246DD
:1032C00092B27169280000F04AFA307835F820107F
:1032D00048F6BF70014091F0100191F0200141F4D7
:1032E000004151F08001307825F82010A5E1307BB5
:1032F00000283DD13069B169884205D230690400A7
:10330000B069001BB06103E0B06904000020B06147
:103310002900B5F8500041183078C00011EB40008A
:1033200000F20C4002889205920D02803F2C0ED3D1
:103330002200520914F01F0F00D1521E03885FEAC9
:10334000822C5CF4004C5CEA030303800FE0002C49
:1033500004D1028852F40042028008E022005208A0
:10336000E30700D5521C038853EA8223038053E10C
:10337000F078022840F0B4807078002833D129001A
:10338000B5F8500041183078C00011EB400202F24D
:10339000044210888005800D108030693F280FD3CB
:1033A00030694009337C13F01F0F00D1401E138891
:1033B0005FEA802C5CF4004C5CEA0303138011E0AC
:1033C0003069002804D1108850F40040108009E0D2
:1033D00030694008337CDB0700D5401C138853EA72
:1033E000802313800EE0707801280BD12900B5F8F6
:1033F000500041183078C00011EB400000F204404A
:10340000326902802900707800283AD12A00B5F884
:10341000500082183078C00012EB400303F20C43D6
:1034200018888005800D188030693F2812D33069D4
:10343000400996F810C01CF01F0F00D1401EB3F8D1
:1034400000C05FEA802E5EF4004E5EEA0C0CA3F82A
:1034500000C015E03069002804D1188850F40040FD
:1034600018800DE03069400896F810C05FEACC7C07
:1034700000D5401CB3F800C05CEA802CA3F800C063
:103480000DE0707801280AD1B5F850004118307865
:10349000C00011EB400000F20C4032690280F0697C
:1034A000002800F0B980307835F82000070044F299
:1034B000400010EA0701020089B2914202D007429F
:1034C00040F0AA80307835F8201048F68F7001401F
:1034D00041F4004151F0C001307825F820109BE004
:1034E000F078012840F096803069B169884205D2B1
:1034F00030690400B069001BB06103E0B0690400EA
:103500000020B061707800282FD12900B5F8500054
:1035100041183078C00011EB400000F204400288EE
:103520009205920D02803F2C0ED32200520914F016
:103530001F0F00D1521E03885FEA822C5CF4004CFE
:103540005CEA030303800FE0002C04D1028852F4EC
:103550000042028008E022005208E30700D5521C16
:10356000038853EA822303800DE0707801280AD192
:103570002900B5F8500041183078C00011EB400028
:1035800000F20440048029007078002834D12A0019
:10359000B5F8500082183078C00012EB400000F2FD
:1035A0000C4003889B059B0D03803F2C10D3230008
:1035B0005B0914F01F0F00D15B1EB0F800C05FEA7A
:1035C000832E5EF4004E5EEA0C0CA0F800C012E000
:1035D000002C04D1038853F4004303800BE0230044
:1035E0005B085FEAC47C00D55B1CB0F800C05CEAF5
:1035F000832CA0F800C00CE07078012809D1B5F840
:10360000500041183078C00011EB400000F20C402F
:10361000048001E0012011E0307835F820104BF6ED
:103620008F70014091F4805191F4005141F40041B8
:1036300051F08001307825F820100020BDE8F28399
:103640000200487800280FD0087832F8203048F679
:10365000BF70034093F0100343F4004353F0800322
:10366000087822F820300EE0087832F820304BF647
:103670008F70034093F4805343F4004353F080036E
:10368000087822F820300020704710B40200087B30
:1036900000284AD14878002824D0087832F8203011
:1036A00058060CD5087832F8204048F68F70044050
:1036B00044F4004454F0C004087822F82040C8784C
:1036C000012832D0087832F8203048F6BF70034025
:1036D00093F0200343F4004353F08003087822F86A
:1036E000203022E0087832F8203058040CD50878D1
:1036F00032F8204048F68F70044044F4404454F0BF
:103700008004087822F82040087832F820304BF600
:103710008F70034093F4805393F4005343F40043B9
:1037200053F08003087822F82030002010BC704746
:1037300002000800C0B2002802D18020A2F84C008C
:1037400000207047010000207047010000207047F2
:103750000100B1F8440070470200002070472DE9D5
:10376000F04304001E00B6B2761C76082700884697
:10377000100080B217EB400E1EF5806E300000285E
:1037800012D098F800C098F801905CEA092C6546C0
:10379000AEF800501EF1020C1CF1020E18F1010CE3
:1037A0001CF10108401EEAE7BDE8F0832DE9F04175
:1037B00004001E00B6B2760827008C46100080B2C6
:1037C00017EB400E1EF5806E3000002813D0BEF8B7
:1037D000008045461EF1020E8CF800501CF1010CD1
:1037E000A8465FEA18288CF800801CF1010C1EF135
:1037F000020E401EE9E75FEAC37804D5BEF80080F8
:1038000045468CF80050BDE8F0810268531C036007
:103810001170704762B38B0708D0521E11F8013B3C
:1038200000F8013B00F024808B07F6D1830740F0BD
:10383000208000BF103A07D330B4B1E83810103AF6
:10384000A0E83810F9D230BC530724BFB1E8081003
:10385000A0E8081044BF51F8043B40F8043BD207ED
:1038600024BF31F8022B20F8022B44BF0B780370E1
:103870007047121F17D35B0009D151F8043B20F8A1
:10388000023B1B0C121F20F8023BF6D20BE051F852
:10389000043B00F8013B1B0A20F8023B1B0C121FE3
:1038A00000F8013BF3D238BF121D521E24BF11F89D
:1038B000013B00F8013BF8D87047010210B410F04A
:1038C00007034B4C22684FF6FF010A4052EA0322DD
:1038D00048490A43226010BC704745480068C0F35D
:1038E00002207047010049B2002909D4012210F0DA
:1038F0001F018A40404903005BB25B0941F8232065
:10390000704710B4020052B2002A05D40A013B4BA2
:10391000040064B21A5508E00A01394B040064B28D
:1039200014F00F04234403F8042C10BC704770B447
:10393000030013F00704D4F10700052801D3042085
:1039400001E0D4F10700251D072D01D2002500E07C
:10395000E51E012616FA00F0401E0140A94016FAA5
:1039600005F56D1E2A401143080070BC704710B564
:103970000400601EB0F1807F01D301200EE0601EC4
:10398000204908600F215FF0FF30FFF7BAFF0020E9
:103990001D49086007201D490860002010BD10B5B2
:1039A00004002000FFF78AFF10BD2DE9F04104005C
:1039B0000D0016000027FFF790FF80463200290017
:1039C0004046FFF7B4FF0100200040B2FFF799FF27
:1039D000BDE8F08110B50400200040B2FFF782FF7F
:1039E00010BD10B504002000FFF7C1FF10BD00009E
:1039F0000CED00E00000FA0500E100E000E400E06A
:103A000018ED00E014E000E018E000E010E000E055
:103A100070B505000C001600002D01D1022012E047
:103A2000D5F8B402002802D00020C5F8B402002C5A
:103A300001D0C5F8B042012085F89C022E70280004
:103A4000FEF7D5FD002070BD02000023002903D041
:103A5000C2F8B412002000E00220C0B2704710B5D6
:103A600004002000FEF703FE002010BD010000202E
:103A7000704770B504000D000226D4F8B402002887
:103A80000AD02900C9B22000D4F8B42212689047A5
:103A9000002801D1002006003000C0B270BD38B54A
:103AA00004000D002900C9B22000D4F8B4225268E5
:103AB0009047002032BD38B504000D00290014F5F0
:103AC0002A7000F07AFE0120C4F89402B4F8AE0225
:103AD000C4F8980294F8A80210F01F00002803D040
:103AE00002280DD006D311E014F52A71200000F051
:103AF0008DFA12E014F52A71200000F0DAFA0CE0D9
:103B000014F52A71200000F00BFB06E094F8A812CF
:103B100011F080012000FEF7EAFD002032BDF8B56B
:103B200004000F0015003800C0B2002839D114F588
:103B3000AA700600D4F89402032826D13069F168EF
:103B4000884210D2F1683069091AF160F068316971
:103B5000884201D2F26800E0326992B22900200066
:103B600000F0B7FE30E0D4F8B4020069002808D0B5
:103B700094F89C02032804D12000D4F8B4120969F7
:103B80008847200000F0B2FE1EE0D4F89402052819
:103B90001AD10020C4F8940200212000FEF7A7FDEE
:103BA00012E0D4F8B402806900280BD094F89C028B
:103BB000032807D13900C9B22000D4F8B422926991
:103BC000904701E0022000E00020F2BDF8B50400BB
:103BD0000D0016002800C0B2002868D114F11400AE
:103BE0000700D4F8940202284AD13869F96888425B
:103BF00010D2F9683869091AF960FA6892B231008E
:103C0000200000F041FE0023002200212000FEF7EA
:103C1000E3FD41E0B8683969B0FBF1F201FB120045
:103C2000002817D1B8683969884213D3B868D4F826
:103C3000981288420ED200220021200000F024FEBB
:103C40000020C4F898020023002200212000FEF783
:103C5000C3FD21E0D4F8B402C068002808D094F86D
:103C60009C02032804D12000D4F8B412C968884704
:103C700080212000FEF73BFD200000F044FE0BE019
:103C8000D4F89402042803D0D4F89402002803D175
:103C900080212000FEF72BFD94F8A002012819D105
:103CA0002000FFF7E3FE002084F8A00212E0D4F821
:103CB000B402406900280BD094F89C02032807D175
:103CC0002900C9B22000D4F8B4225269904701E01B
:103CD000022000E00020F2BD10B5040040230022C5
:103CE00000212000FEF7D2FC0120C4F8580140203A
:103CF000C4F864014023002280212000FEF7C6FCA6
:103D00000120A06140206062012084F89C02002014
:103D1000C4F89402002060600020C4F8A402D4F823
:103D2000B802002806D06168C9B22000D4F8B422D5
:103D300052689047002010BD0200117400207047A7
:103D4000010091F89C0281F89D02042081F89C02F8
:103D500000207047010091F89C02042803D191F8DB
:103D60009D0281F89C020020704710B5040094F871
:103D70009C02032809D1D4F8B402C069002804D0F9
:103D80002000D4F8B412C9698847002010BD2E0065
:103D9000010089B2B1F5804F0CD152490A78012A4D
:103DA00008D1514A1278012A04D101224F4B1A70CE
:103DB00000220A70704701214A4A117000214A4AC4
:103DC0001170704770B504002068B0F1804F1AD1AF
:103DD000474D4848298850F82100474908602888FD
:103DE000401C2880288884280DD1404E3078012836
:103DF00007D141F2B8724149414800F032FE00203B
:103E000030700020288070BD2DE9FE4301F0BAF823
:103E100000F082F801F0C8F801F022F901F036F95B
:103E200001F08CF901F010FA01F062FA01F0BAFA2F
:103E300001F01AFB012033490860334801F077FB99
:103E40005FF0FF3305227821304801F005FF0400C0
:103E500002F0E6F9002002F048FA0221022002F006
:103E600066FB012000902A4890E80E00294802F0E5
:103E700045FB02F04DFA0521002201AD280002F0B9
:103E800085FB0026184D28780028FBD1002006006D
:103E9000300080B241F2B87188421AD205275FF033
:103EA00000080DF1040942463900484602F06EFB55
:103EB0001248310089B230F8112009A101A802F09E
:103EC00099FB052101A802F0F2FB0128F9D0761C2C
:103ED000DEE701202870002004490870D2E70000C6
:103EE00025640D00C1030020C0030020CA48002043
:103EF000C84800200000002010080140C403002032
:103F00008848002034000040B4470020604700206B
:103F10000CA0000824A0000818B593B028210022A6
:103F200009AC200002F032FB1421002204AC200076
:103F300002F02CFB102100226C46200002F026FB30
:103F4000012009905FF480300A9000210B9101213B
:103F50000D910221109111905FF4E010129009A8C8
:103F600002F0C6FB002801D000F023F80F200490D7
:103F700002200590002006904FF4806007900020FA
:103F80000890022104A802F0B3FD002801D000F03F
:103F900010F8122000904FF400400290002003908F
:103FA000684602F0C9FE002801D000F002F814B003
:103FB00010BD72B6FEE730B40400080080B20006FF
:103FC0000AD50D00ADB215F007052820454304EBD6
:103FD000050010F1280507E00D00ADB2282045438B
:103FE00004EB050010F5B475100080B2002803D171
:103FF00000202873EB8005E0012028732B81180036
:10400000000C6881002030BC7047000070B50400CF
:104010000D000026287810F0600000280AD0202823
:1040200001D040283ED129002000D4F8B422926863
:1040300090473BE06878002820D0012828D003284A
:1040400021D005280BD0062804D0082811D0092833
:104050000AD022E02900200000F0A0F921E0290088
:10406000200000F09CFA1CE02900200000F0CBFAB0
:1040700017E02900200000F02FFB12E029002000AB
:1040800000F051FB0DE02900200000F072FB08E079
:104090002900200000F07AFB03E02900200000F056
:1040A000A0FB03E02900200000F09BFB3000C0B221
:1040B00070BD70B504000D000026287810F0600077
:1040C000002803D0202801D0402823D194F89C0256
:1040D000401E022819D82879022811DA2900200068
:1040E000D4F8B422926890470600E88800280BD1E3
:1040F0003000C0B2002807D1200000F0F7FB03E039
:104100002900200000F06DFB03E02900200000F0F2
:1041100068FB03E02900200000F063FB002070BD75
:104120002DE9F04104000D000026AF88287810F03A
:10413000600000280BD0202802D0402840F02681C3
:1041400029002000D4F8B4229268904722E1287810
:1041500010F06000202807D129002000D4F8B422F4
:1041600092689047C0B217E16878002870D00128A3
:104170003CD0032840F0058194F89C02022802D02C
:10418000032817D02DE03800C0B200280DD0380029
:10419000C0B2802809D03900C9B22000FEF7A7FAC2
:1041A00080212000FEF7A3FA03E02900200000F0A0
:1041B00018FB1AE0688800280FD13800C0B2002828
:1041C0000BD03800C0B2802807D0E888002804D17E
:1041D0003900C9B22000FEF78AFA200000F086FB01
:1041E00003E02900200000F0FCFACEE094F89C02E5
:1041F000022802D0032817D025E03800C0B20028DA
:104200000DD03800C0B2802809D03900C9B22000D2
:10421000FEF76DFA80212000FEF769FA03E029001D
:10422000200000F0DEFA12E0688800280AD117F0BA
:104230007F0F04D03900C9B22000FEF76DFA2000CC
:1042400000F054FB03E02900200000F0CAFA9CE0D3
:1042500094F89C02022802D003282FD08CE038006A
:10426000C0B2002808D03800C0B2802804D029008D
:10427000200000F0B6FA83E03800C0B200060AD58C
:104280003900C9B211F07F011420414304EB010051
:1042900010F1140809E03900C9B211F07F011420AF
:1042A000414304EB010010F5AA780020C8F8000093
:1042B00002224146200000F0D1FA61E03800C0B28D
:1042C00000060FD53900C9B211F00F011420414387
:1042D00004EB01008069002815D12900200000F0BE
:1042E00080FA4DE03900C9B211F00F0114204143AA
:1042F00004EB0100D0F85801002804D12900200067
:1043000000F06FFA3CE03800C0B200060AD5390070
:10431000C9B211F07F011420414304EB010010F1F8
:10432000140809E03900C9B211F07F01142041439B
:1043300004EB010010F5AA783800C0B2002803D0C1
:104340003800C0B2802803D10020C8F800000DE07A
:104350003900C9B22000FEF7F4F9002803D001208B
:10436000C8F8000002E00020C8F800000222414620
:10437000200000F073FA03E02900200000F031FA79
:1043800003E02900200000F02CFA03E029002000BF
:1043900000F027FA3000C0B2BDE8F081F8B50400A3
:1043A0000D000020ADF8000000260027688880B2CC
:1043B000000AC0B201280AD0022810D0032823D056
:1043C000062800F0A580072800F0B280C2E0694608
:1043D000207CD4F8B022126890470600BFE0207C11
:1043E000002808D16846D4F8B412896A88470600C4
:1043F0000220707007E06846D4F8B412C96A884792
:10440000060002207070AAE0A878002808D00228D0
:104410002CD018D304284FD03BD305285FD071E0AF
:10442000D4F8B0024068002807D06946207CD4F850
:10443000B02252689047060004E02900200000F0F6
:10444000D0F97F1C63E0D4F8B0028068002807D060
:104450006946207CD4F8B02292689047060004E0B8
:104460002900200000F0BDF97F1C50E0D4F8B00214
:10447000C068002807D06946207CD4F8B022D268F2
:104480009047060004E02900200000F0AAF97F1CF4
:104490003DE0D4F8B0020069002807D06946207CCE
:1044A000D4F8B02212699047060004E029002000E9
:1044B00000F097F97F1C2AE0D4F8B0024069002888
:1044C00007D06946207CD4F8B02252699047060094
:1044D00004E02900200000F084F97F1C17E0D4F8E4
:1044E000B0028069002807D06946207CD4F8B02249
:1044F00092699047060004E02900200000F071F95D
:104500007F1C04E02900200000F06BF97F1C26E0EE
:10451000207C002806D16846D4F8B412496B88473D
:10452000060004E02900200000F05BF97F1C16E083
:10453000207C002808D16846D4F8B412096B88475B
:1045400006000720707004E02900200000F049F9FF
:104550007F1C04E02900200000F043F97F1C380094
:10456000C0B200281AD1BDF80000002810D0E88899
:1045700000280DD0BDF80000E988884202D3E88801
:10458000ADF80000BDF800203100200000F066F911
:10459000E888002802D1200000F0A8F9F1BD70B52C
:1045A00004000D00A888002828D1E888002825D11B
:1045B0006888802822D2A87810F07F00060094F83E
:1045C0009C02032804D12900200000F00AF919E018
:1045D00084F89E623100C9B22000FEF7CDF82000B9
:1045E00000F084F93000C0B2002803D0022084F823
:1045F0009C0207E0012084F89C0203E029002000CF
:1046000000F0EFF870BD70B504000D00314E688801
:1046100030703078022804DB2900200000F0E1F837
:1046200057E094F89C02022802D003281BD048E0EF
:104630003078002813D030786060032084F89C0222
:1046400031782000FFF715FA022804D12900200054
:1046500000F0C7F83DE0200000F048F902E020003B
:1046600000F044F935E0307800280CD1022084F8BD
:104670009C023078606031782000FFF710FA20004B
:1046800000F034F91CE030786168884215D0616828
:10469000C9B22000FFF703FA30786060317820005B
:1046A000FFF7E7F9022804D12900200000F099F86B
:1046B0000FE0200000F01AF902E0200000F016F9E7
:1046C00007E02900200000F08CF831782000FFF787
:1046D000E6F970BDCB48002038B504000D00E8882D
:1046E000012804D02900200000F07BF81AE094F89B
:1046F0009C02401E012802D9801E09D00EE0002035
:10470000A060012214F10801200000F0A7F809E0E0
:104710000122211D200000F0A1F803E02900200063
:1047200000F05FF831BD38B504000D0094F89C022C
:10473000401E022818D8E888022804D0290020004A
:1047400000F04FF814E00120E060D4F8A402002843
:1047500003D0E06850F00200E060022214F10C0186
:10476000200000F07BF803E02900200000F039F879
:1047700031BD38B504000D006888012805D101203D
:10478000C4F8A402200000F0B1F831BD38B504002F
:104790000D0094F89C02401E022809D86888012860
:1047A00005D10020C4F8A402200000F09FF803E027
:1047B0002900200000F015F831BD0A7802704A780F
:1047C00042708A78CB7812EB032242800A794B79C7
:1047D00012EB032282808A79CB7912EB0322C2800A
:1047E000704738B504000D0080212000FDF77FFFE1
:1047F00000212000FDF77BFF31BDF8B504000D005E
:1048000016000027002C1ED0200000F01DF84000EC
:10481000801C308030783900C9B268547F1C032076
:104820003900C9B268547F1C207800280BD020784A
:104830003900C9B26854641C7F1C00203900C9B219
:1048400068547F1CF0E7F1BD0200002011780029B8
:1048500002D0401C521CF9E7C0B2704770B504008A
:104860000D0016000220C4F89402300080B2E0610E
:10487000300080B2206233009BB22A000021200069
:10488000FDF78FFF002070BD70B504000D0016000D
:1048900033009BB22A0000212000FDF782FF002098
:1048A00070BD70B504000D0016000320C4F894021A
:1048B000300080B2C4F85C01300080B2C4F86001FE
:1048C00033009BB22A0000212000FDF785FF002065
:1048D00070BD70B504000D00160033009BB22A00B5
:1048E00000212000FDF778FF002070BD10B5040006
:1048F0000420C4F894020023002200212000FDF7C8
:1049000050FF002010BD10B504000520C4F894022B
:104910000023002200212000FDF75EFF002010BDD3
:104920002DE9F04104005FF0000800250026002773
:10493000002C01D1012092E0A068002801D0207D48
:104940000028A06A002807D10020E062002084F837
:104950002400200000F01EFC200000F0A7FAA16A4D
:10496000C90675D40100C9B2002971D1A16A31F418
:10497000885151F00201A16261680E43E1690E4362
:10498000217B56EA4106A168B1F5807F02D0A1687B
:10499000012902D14FF4807100E000210D43217DF7
:1049A000012911D1217B002906D1A169491E55EAAF
:1049B000413555F4006507E0A16A51F02001A1627C
:1049C000E16A51F00101E1622168496831F469410D
:1049D00029432268516021688A68DFF8B0140A40D0
:1049E000324321688A60A168B1F5807F02D0A16856
:1049F000012902D14FF4807100E00021B1F5807FE0
:104A000003D12169491E09050F002168C96A31F4E3
:104A1000700139432268D16221688A68DFF8701416
:104A20000A40B24207D10021E1620121A26A61F38A
:104A30000102A26212E0A16A31F0020151F01001FC
:104A4000A162E16A51F00101E1620121080005E083
:104A5000A16A51F01001A16201210800C0B2BDE8B5
:104A6000F0812DE9F84304000D0016005FF0000905
:104A7000DFF828742068B84204D02068DFF81414E6
:104A8000884205D1DFF81004006810F4702000E0BF
:104A90000020002840F0958094F82400012801D1DE
:104AA000022092E0012084F82400200000F0B3F9F5
:104AB00080464046C0B2002840F07F80A16ADFF8FF
:104AC000E403014051F48071A162DFF8C81320684B
:104AD000884209D1DFF8C003006810F4702F01D1BB
:104AE000012002E0002000E0012000280DD0A06A93
:104AF00030F48010A0622068406840051DD5012078
:104B0000A16A60F30D31A16217E0A06A50F4801031
:104B1000A0622068B84202D02068884205D1DFF840
:104B20007803006810F4806000E00020002804D0C2
:104B30000120A16A60F30D31A162A06AC00404D50E
:104B4000E06A30F00600E06201E00020E062002050
:104B500084F824000FF2A930216A88620FF2F53040
:104B6000216AC8620FF2FD30216A08637FF00200FB
:104B7000216808602068806850F48070216888602F
:104B800033002A00206810F14C01206A02F09DF9E0
:104B90002068806810F46020B0F5602F06D120688E
:104BA000806850F4A000216888600CE0206880686C
:104BB00050F480102168886005E0002084F824000B
:104BC00001E05FF001084046C0B2BDE8F28370B575
:104BD00004002068056820684668B0062AD5A80742
:104BE00028D5A06AC00603D4A06A50F40070A06261
:104BF0002068806810F46020B0F5602F13D1207B0E
:104C0000002810D12068406830F0200021684860FA
:104C1000A06A30F48070A062A06AC00403D4A06AC5
:104C200050F00100A0622000FFF7C5F87FF01200ED
:104C300021680860300635D5680733D5A06AC006FC
:104C400003D4A06A50F40050A0622068806810F479
:104C5000E040B0F5E04F0DD02068406840051AD420
:104C60002068806810F46020B0F5602F13D1207B9D
:104C7000002810D12068406830F08000216848602A
:104C8000A06A30F48050A062A06AC00503D4A06A74
:104C900050F00100A062200002F0C2FA7FF00C0088
:104CA0002168086070060CD5E8070AD5A06A50F4A0
:104CB0008030A062200002F0B4FA7FF00100216889
:104CC000086070BD78B4020000230020009092F8C4
:104CD0002400012801D102209BE0012082F8240059
:104CE0004868072812D21068446B1F254868461E82
:104CF00005204643B540AC430D684868461E052074
:104D00004643B5402C431068446329E048680D28A9
:104D100012D21068046B1F254868C61F0520464341
:104D2000B540AC430D684868C61F05204643B540F2
:104D30002C431068046313E01068C46A1F25486898
:104D4000B0F10D0605204643B540AC430D684868F8
:104D5000B0F10D0605204643B5402C431068C462EF
:104D600008680A2814D31068C46807250868B0F1D9
:104D70000A0603204643B540AC438D680868B0F18D
:104D80000A0603204643B5402C431068C4600FE078
:104D90001068046907250E6803204643B540AC43FC
:104DA0008D680E6803204643B5402C4310680461AB
:104DB0000868102802D00868112825D11068374CDF
:104DC000A0421BD11068806800021DD41068806862
:104DD00050F400001468A0600868102814D130480E
:104DE0000068314CB0FBF4F40A204443009400986E
:104DF000002809D00098401E0090F8E7906A50F013
:104E00002000906201200300002082F82400180096
:104E1000C0B272BC704738B5040000250020009075
:104E200020688068C0072FD42068806850F0010097
:104E3000216888601A4800681B49B0FBF1F00090B7
:104E40000098002803D00098401E0090F8E702F078
:104E5000E9F9050020688068C00715D402F0E2F97E
:104E6000401B0328F6D320688068C007F2D4A06AEC
:104E700050F01000A062E06A50F00100E0620020F3
:104E800084F82400012000E0002032BDFDF7E1FF9E
:104E9000FE0E1FFF002801400424014000240140B1
:104EA00014020020FEF1FFFF40420F0038B504005D
:104EB000002520688068C0071FD5206880684008EA
:104EC00040002168886002F0ADF905002068806824
:104ED000C00712D502F0A6F9401B0328F6D32068BC
:104EE0008068C007F2D5A06A50F01000A062E06AA6
:104EF00050F00100E062012000E0002032BD00001F
:104F000038B50400656AA86A10F0500F1CD1A86A71
:104F100050F40070A8622868806810F46020B0F532
:104F2000602F0DD1287B00280AD1A86A30F4807048
:104F3000A862A86AC00403D4A86A50F00100A8625D
:104F40002800FEF738FF03E02000296A096B884734
:104F500031BD000038B50400656A280002F068F928
:104F600031BD000038B50400656AA86A50F0400001
:104F7000A862E86A50F00400E862280002F059F9DB
:104F800031BD000080B50748016851F01001016093
:104F90000320FEF704FD0F2002F04CF902F070F937
:104FA000002002BD0020024018B585B0102200216B
:104FB000684602F089F92648016851F01001016045
:104FC000016811F0100104910499016851F0200169
:104FD0000160016811F0200104910499016851F009
:104FE00004010160016811F0040104910499016851
:104FF00051F008010160006810F008000490049866
:10500000144C0022FF21200002F077FAFF200090CC
:1050100001200190002002900220039069462000A8
:1050200002F05CF94FF4804000900B4801900120A1
:1050300002906946094802F051F900220021282017
:10504000FEF7B3FC2820FEF7C5FC06B010BD00BF7C
:10505000181002400008014000002110000C01401F
:1050600080B50948016851F001010160006810F045
:10507000010000900098002200210B20FEF795FC13
:105080000B20FEF7A7FC01BD1410024010B586B03E
:105090001022002102A802F017F908220021684618
:1050A00002F012F9234C5FF0804020600020606025
:1050B0000020A06040F23740E06000202061002026
:1050C000A061200000F0FCF9002801D0FEF771FF7C
:1050D0004FF48050029002A9200000F022FB00282B
:1050E00001D0FEF766FF0020009000200190694685
:1050F000200002F041FA002801D0FEF75AFF06B066
:1051000010BD1CB504002068B0F1804F11D10A48D1
:10511000016851F001010160006810F00100009089
:105120000098002200211C20FEF73FFC1C20FEF707
:1051300051FC13BDB44700201C1002401FB50C22C7
:105140000021684602F0C0F8394C3A48206000203F
:10515000A06001202073002020755FF46020E061D2
:1051600000206060012020612000FFF7D9FB0028AB
:1051700001D0FEF71EFF09200090012001900020C1
:10518000029069462000FFF79DFD002801D0FEF740
:1051900010FF1FBD30B585B004001022002101A80A
:1051A00002F092F82068234988423ED122480168E3
:1051B00051F400710160016811F4007100910099CF
:1051C000016851F008010160006810F008000090CB
:1051D0000098022001900320029001A9174802F0D4
:1051E0007DF8174D17482860002068600020A860EF
:1051F0008020E8604FF4807028614FF4806068611F
:105200000020A8610020E861280001F02BFE0028A2
:1052100001D0FEF7CEFE25626C6200220021122032
:10522000FEF7C3FB1220FEF7D5FB05B030BD000032
:10523000884800200024014018100240000C014062
:10524000444800200800024080B5234823490160FB
:1052500023494160002181600021C1604FF48041F9
:10526000016100214161002181610021C1610021B2
:10527000016200F041FB002801D0FEF79AFE01BD5B
:1052800018B585B004001022002101A802F01CF816
:105290002068124988421DD11248016851F0080166
:1052A0000160006810F0080000900098C020019094
:1052B000122002900320049001A90B4802F00EF87E
:1052C0000A48016851F400110160006810F40010F0
:1052D0000090009806B010BD6047002000540040C8
:1052E000A086010018100240000C01401C10024072
:1052F00080B52748274901604FF482714160002141
:1053000081600021C16000210161002141615FF4E1
:10531000802181610021C16100210162002141627F
:10532000002181620A21C16202F064F9002801D0E3
:10533000FEF73FFE01BD18B585B004001022002124
:1053400001A801F0C1FF2068124988421ED112480D
:10535000016851F480410160006810F480400090C1
:1053600000980E48016851F008010160006810F0D3
:105370000800009000984FF4304001900220029005
:105380000320049001A9064801F0A8FF06B010BD53
:1053900008470020003800401C100240181002404E
:1053A000000C014080B52C482C4901605FF4E131CC
:1053B0004160002181600021C160002101610C2158
:1053C0004161002181610021C16102F075F900286D
:1053D00001D0FEF7EEFD01BD30B585B0040010220E
:1053E0000021684601F070FF20681C49884231D1D5
:1053F0001B48016851F480410160016811F480414B
:1054000004910499016851F004010160006810F0F2
:105410000400049004984FF4007000900220019062
:10542000032003900F4D6946280001F057FF4FF409
:1054300080600090002001900020029069462800C2
:1054400001F04CFF002200212520FEF7AEFA2520B6
:10545000FEF7C0FA05B030BDFC470020003801401F
:10546000181002400008014010B5114C00221149EB
:105470002000FEF7CDFA002801D0FEF79AFD0E4974
:105480002000FEF7E1FA002801D0FEF792FD0B495B
:10549000200002F0C1FD002801D0FEF78AFD2000A7
:1054A000FEF7DDFA002801D0FEF783FD10BD00BF36
:1054B000243E00203803002024020020280300207E
:1054C00010B50400002C01D101202FE094F83D001C
:1054D000002805D1002084F83C002000FFF711FED1
:1054E000022084F83D00211D206800F094F901207D
:1054F00084F84600012084F83E00012084F83F0033
:10550000012084F84000012084F84100012084F843
:105510004200012084F84300012084F84400012067
:1055200084F84500012084F83D00002010BD0100F2
:1055300091F83D00012801D0012030E0022081F8DF
:105540003D000868C06850F001000B68D86008682A
:10555000DFF84C3098420DD00868B0F1804F09D088
:105560000868DFF84030984204D00868DFF8383027
:1055700098420DD10868806810F007000200062AE2
:105580000CD00868006850F001000B68186005E056
:105590000868006850F001000B6818600020704730
:1055A000002C0140000400400008004010B5040039
:1055B0002068006980071AD52068C068800716D562
:1055C0007FF002002168086101202077206880694F
:1055D00010F0030F03D0200002F07CFD05E0200056
:1055E00002F079FD200002F077FD0020207720688E
:1055F000006940071AD52068C068400716D57FF0BB
:10560000040021680861022020772068806910F476
:10561000407F03D0200002F05DFD05E0200002F095
:105620005AFD200002F058FD002020772068006914
:1056300000071AD52068C068000716D57FF008005B
:1056400021680861042020772068C06910F0030FEA
:1056500003D0200002F03EFD05E0200002F03BFDFB
:10566000200002F039FD0020207720680069C00684
:105670001AD52068C068C00616D57FF010002168D2
:105680000861082020772068C06910F4407F03D0AB
:10569000200002F01FFD05E0200002F01CFD2000AC
:1056A00002F01AFD0020207720680069C0070AD5A3
:1056B0002068C068C00706D57FF001002168086136
:1056C0002000FEF77FFB2068006900060AD52068ED
:1056D000C068000606D57FF08000216808612000C0
:1056E00002F0FBFC2068006940060AD52068C0680B
:1056F000400606D57FF0400021680861200002F0D6
:10570000EDFC2068006980060AD52068C068800624
:1057100006D57FF0200021680861200002F0DFFC40
:1057200010BDF8B504000D00002694F83C000128D7
:1057300001D102206EE0012084F83C00022084F8B0
:105740003D002068876837F0770737F47F47206887
:105750008760286800284ED010284CD020284AD0D6
:10576000302848D040283CD0502826D060282ED061
:10577000702807D0B0F5805F03D0B0F5005F0FD080
:105780003EE03FE0EB686A68A968206800F0A9F88D
:105790002068806850F0770007002068876031E05B
:1057A000EB686A68A968206800F09BF82068806848
:1057B00050F480402168886024E0EA6869682068C5
:1057C00000F062F85021206800F083F81AE0EA68DF
:1057D0006968206800F06AF86021206800F079F8B4
:1057E00010E0EA686968206800F04EF840212068FF
:1057F00000F06FF806E02968206800F06AF801E020
:1058000001200600012084F83D00002084F83C00BF
:105810003000C0B2F2BD10B40368184CA04208D0EA
:10582000B0F1804F05D0164A904202D0154A9042FE
:1058300003D133F070034A681343A04208D0B0F19B
:10584000804F05D00E4A904202D00E4A904203D1BA
:1058500033F44073CA68134333F080034A69134337
:1058600003608A68C2620A688262A04201D10A6942
:1058700002630122426110BC70470000002C01400D
:10588000000400400008004010B4046A036A5B088A
:105890005B000362836933F0F00353EA021334F0D0
:1058A0000A040C438361046210BC704710B4046A9C
:1058B000036A33F010030362836933F4704353EADD
:1058C000023334F0A00454EA01148361046210BC72
:1058D0007047826832F070020A4352F00702826019
:1058E000704710B4846834F47F440C43144354EA82
:1058F0000324846010BC704770B50400002C01D1F3
:105900000120E1E094F83D00002805D1002084F852
:105910003C002000FFF7B4FC242084F83D00206800
:10592000006840084000216808602068006850F462
:105930000040216808602068006830F40040216859
:10594000086001F0ACF90100DFF880016268824272
:1059500008D2DFF87C21914201D2012200E000222E
:10596000D2B207E0DFF86C21914201D2012200E0BF
:105970000022D2B2012A01D10120A5E0DFF858218E
:10598000B1FBF2F223685B689B099B011343256816
:105990006B6023681B6A6568854201D2551C08E06C
:1059A0004FF4967505FB02F54FF47A76B5FBF6F5E4
:1059B0006D1C9B099B012B4325682B622368DB69C7
:1059C0006568854214D2481E65686D00B0FBF5F02D
:1059D000401C0005000D042801D204253EE0481EAD
:1059E00065686D00B0FBF5F56D1C2D052D0D35E0DE
:1059F000A068002809D14D1E666803204643B5FB08
:105A0000F6F0401C0005000D0AE04D1E66681920E6
:105A10004643B5FBF6F0401C0005000D50F48040F5
:105A2000000501D1012519E0A068002809D14D1E0B
:105A3000666803204643B5FBF6F56D1C2D052D0D5C
:105A40000AE04D1E666819204643B5FBF6F56D1C4D
:105A50002D052D0D55F4804555F40045DFF87C00EB
:105A600003402B432068C3612068036833F0C00300
:105A7000E0690343206A0343206803602068836869
:105A8000DFF85C00034020690343E06803432068BB
:105A900083602068C3681B0A1B02A569606905430F
:105AA0002B432068C3602068006850F00100236821
:105AB000186000202064202084F83D00002020632E
:105AC000002084F83E00002070BD0000A186010087
:105AD00080841E0000093D0040420F000030FFFF9F
